{
  "_format": "hh-sol-artifact-1",
  "contractName": "NFT",
  "sourceName": "contracts/NFT.sol",
  "abi": [
    {
      "inputs": [
        {
          "internalType": "string",
          "name": "name_",
          "type": "string"
        },
        {
          "internalType": "string",
          "name": "symbol_",
          "type": "string"
        },
        {
          "internalType": "uint256",
          "name": "fees_",
          "type": "uint256"
        }
      ],
      "stateMutability": "nonpayable",
      "type": "constructor"
    },
    {
      "inputs": [
        {
          "internalType": "uint256",
          "name": "ethersAmount",
          "type": "uint256"
        }
      ],
      "name": "ethersNotSufficient",
      "type": "error"
    },
    {
      "anonymous": false,
      "inputs": [
        {
          "indexed": true,
          "internalType": "address",
          "name": "owner",
          "type": "address"
        },
        {
          "indexed": true,
          "internalType": "address",
          "name": "approved",
          "type": "address"
        },
        {
          "indexed": true,
          "internalType": "uint256",
          "name": "tokenId",
          "type": "uint256"
        }
      ],
      "name": "Approval",
      "type": "event"
    },
    {
      "anonymous": false,
      "inputs": [
        {
          "indexed": true,
          "internalType": "address",
          "name": "owner",
          "type": "address"
        },
        {
          "indexed": true,
          "internalType": "address",
          "name": "operator",
          "type": "address"
        },
        {
          "indexed": false,
          "internalType": "bool",
          "name": "approved",
          "type": "bool"
        }
      ],
      "name": "ApprovalForAll",
      "type": "event"
    },
    {
      "anonymous": false,
      "inputs": [
        {
          "indexed": true,
          "internalType": "address",
          "name": "previousOwner",
          "type": "address"
        },
        {
          "indexed": true,
          "internalType": "address",
          "name": "newOwner",
          "type": "address"
        }
      ],
      "name": "OwnershipTransferred",
      "type": "event"
    },
    {
      "anonymous": false,
      "inputs": [
        {
          "indexed": true,
          "internalType": "address",
          "name": "from",
          "type": "address"
        },
        {
          "indexed": true,
          "internalType": "address",
          "name": "to",
          "type": "address"
        },
        {
          "indexed": true,
          "internalType": "uint256",
          "name": "tokenId",
          "type": "uint256"
        }
      ],
      "name": "Transfer",
      "type": "event"
    },
    {
      "inputs": [
        {
          "internalType": "address",
          "name": "to",
          "type": "address"
        },
        {
          "internalType": "uint256",
          "name": "tokenId",
          "type": "uint256"
        }
      ],
      "name": "approve",
      "outputs": [],
      "stateMutability": "nonpayable",
      "type": "function"
    },
    {
      "inputs": [
        {
          "internalType": "address",
          "name": "owner",
          "type": "address"
        }
      ],
      "name": "balanceOf",
      "outputs": [
        {
          "internalType": "uint256",
          "name": "",
          "type": "uint256"
        }
      ],
      "stateMutability": "view",
      "type": "function"
    },
    {
      "inputs": [],
      "name": "fees",
      "outputs": [
        {
          "internalType": "uint256",
          "name": "",
          "type": "uint256"
        }
      ],
      "stateMutability": "view",
      "type": "function"
    },
    {
      "inputs": [
        {
          "internalType": "uint256",
          "name": "tokenId",
          "type": "uint256"
        }
      ],
      "name": "getApproved",
      "outputs": [
        {
          "internalType": "address",
          "name": "",
          "type": "address"
        }
      ],
      "stateMutability": "view",
      "type": "function"
    },
    {
      "inputs": [
        {
          "internalType": "address",
          "name": "owner",
          "type": "address"
        },
        {
          "internalType": "address",
          "name": "operator",
          "type": "address"
        }
      ],
      "name": "isApprovedForAll",
      "outputs": [
        {
          "internalType": "bool",
          "name": "",
          "type": "bool"
        }
      ],
      "stateMutability": "view",
      "type": "function"
    },
    {
      "inputs": [],
      "name": "name",
      "outputs": [
        {
          "internalType": "string",
          "name": "",
          "type": "string"
        }
      ],
      "stateMutability": "view",
      "type": "function"
    },
    {
      "inputs": [],
      "name": "owner",
      "outputs": [
        {
          "internalType": "address",
          "name": "",
          "type": "address"
        }
      ],
      "stateMutability": "view",
      "type": "function"
    },
    {
      "inputs": [
        {
          "internalType": "uint256",
          "name": "tokenId",
          "type": "uint256"
        }
      ],
      "name": "ownerOf",
      "outputs": [
        {
          "internalType": "address",
          "name": "",
          "type": "address"
        }
      ],
      "stateMutability": "view",
      "type": "function"
    },
    {
      "inputs": [],
      "name": "renounceOwnership",
      "outputs": [],
      "stateMutability": "nonpayable",
      "type": "function"
    },
    {
      "inputs": [
        {
          "internalType": "address",
          "name": "to",
          "type": "address"
        },
        {
          "internalType": "string",
          "name": "uri",
          "type": "string"
        }
      ],
      "name": "safeMint",
      "outputs": [],
      "stateMutability": "payable",
      "type": "function"
    },
    {
      "inputs": [
        {
          "internalType": "address",
          "name": "from",
          "type": "address"
        },
        {
          "internalType": "address",
          "name": "to",
          "type": "address"
        },
        {
          "internalType": "uint256",
          "name": "tokenId",
          "type": "uint256"
        }
      ],
      "name": "safeTransferFrom",
      "outputs": [],
      "stateMutability": "nonpayable",
      "type": "function"
    },
    {
      "inputs": [
        {
          "internalType": "address",
          "name": "from",
          "type": "address"
        },
        {
          "internalType": "address",
          "name": "to",
          "type": "address"
        },
        {
          "internalType": "uint256",
          "name": "tokenId",
          "type": "uint256"
        },
        {
          "internalType": "bytes",
          "name": "_data",
          "type": "bytes"
        }
      ],
      "name": "safeTransferFrom",
      "outputs": [],
      "stateMutability": "nonpayable",
      "type": "function"
    },
    {
      "inputs": [
        {
          "internalType": "address",
          "name": "operator",
          "type": "address"
        },
        {
          "internalType": "bool",
          "name": "approved",
          "type": "bool"
        }
      ],
      "name": "setApprovalForAll",
      "outputs": [],
      "stateMutability": "nonpayable",
      "type": "function"
    },
    {
      "inputs": [
        {
          "internalType": "bytes4",
          "name": "interfaceId",
          "type": "bytes4"
        }
      ],
      "name": "supportsInterface",
      "outputs": [
        {
          "internalType": "bool",
          "name": "",
          "type": "bool"
        }
      ],
      "stateMutability": "view",
      "type": "function"
    },
    {
      "inputs": [],
      "name": "symbol",
      "outputs": [
        {
          "internalType": "string",
          "name": "",
          "type": "string"
        }
      ],
      "stateMutability": "view",
      "type": "function"
    },
    {
      "inputs": [
        {
          "internalType": "uint256",
          "name": "tokenId",
          "type": "uint256"
        }
      ],
      "name": "tokenURI",
      "outputs": [
        {
          "internalType": "string",
          "name": "",
          "type": "string"
        }
      ],
      "stateMutability": "view",
      "type": "function"
    },
    {
      "inputs": [
        {
          "internalType": "address",
          "name": "from",
          "type": "address"
        },
        {
          "internalType": "address",
          "name": "to",
          "type": "address"
        },
        {
          "internalType": "uint256",
          "name": "tokenId",
          "type": "uint256"
        }
      ],
      "name": "transferFrom",
      "outputs": [],
      "stateMutability": "nonpayable",
      "type": "function"
    },
    {
      "inputs": [
        {
          "internalType": "address",
          "name": "newOwner",
          "type": "address"
        }
      ],
      "name": "transferOwnership",
      "outputs": [],
      "stateMutability": "nonpayable",
      "type": "function"
    }
  ],
  "bytecode": "0x60806040523480156200001157600080fd5b50604051620036f4380380620036f48339818101604052810190620000379190620003f3565b82828160009080519060200190620000519291906200016b565b5080600190805190602001906200006a9291906200016b565b5050506200008d620000816200009d60201b60201c565b620000a560201b60201c565b80600981905550505050620004f2565b600033905090565b6000600760009054906101000a900473ffffffffffffffffffffffffffffffffffffffff16905081600760006101000a81548173ffffffffffffffffffffffffffffffffffffffff021916908373ffffffffffffffffffffffffffffffffffffffff1602179055508173ffffffffffffffffffffffffffffffffffffffff168173ffffffffffffffffffffffffffffffffffffffff167f8be0079c531659141344cd1fd0a4f28419497f9722a3daafe3b4186f6b6457e060405160405180910390a35050565b8280546200017990620004bc565b90600052602060002090601f0160209004810192826200019d5760008555620001e9565b82601f10620001b857805160ff1916838001178555620001e9565b82800160010185558215620001e9579182015b82811115620001e8578251825591602001919060010190620001cb565b5b509050620001f89190620001fc565b5090565b5b8082111562000217576000816000905550600101620001fd565b5090565b6000604051905090565b600080fd5b600080fd5b600080fd5b600080fd5b6000601f19601f8301169050919050565b7f4e487b7100000000000000000000000000000000000000000000000000000000600052604160045260246000fd5b620002848262000239565b810181811067ffffffffffffffff82111715620002a657620002a56200024a565b5b80604052505050565b6000620002bb6200021b565b9050620002c9828262000279565b919050565b600067ffffffffffffffff821115620002ec57620002eb6200024a565b5b620002f78262000239565b9050602081019050919050565b60005b838110156200032457808201518184015260208101905062000307565b8381111562000334576000848401525b50505050565b6000620003516200034b84620002ce565b620002af565b90508281526020810184848401111562000370576200036f62000234565b5b6200037d84828562000304565b509392505050565b600082601f8301126200039d576200039c6200022f565b5b8151620003af8482602086016200033a565b91505092915050565b6000819050919050565b620003cd81620003b8565b8114620003d957600080fd5b50565b600081519050620003ed81620003c2565b92915050565b6000806000606084860312156200040f576200040e62000225565b5b600084015167ffffffffffffffff81111562000430576200042f6200022a565b5b6200043e8682870162000385565b935050602084015167ffffffffffffffff8111156200046257620004616200022a565b5b620004708682870162000385565b92505060406200048386828701620003dc565b9150509250925092565b7f4e487b7100000000000000000000000000000000000000000000000000000000600052602260045260246000fd5b60006002820490506001821680620004d557607f821691505b60208210811415620004ec57620004eb6200048d565b5b50919050565b6131f280620005026000396000f3fe6080604052600436106101095760003560e01c80638da5cb5b11610095578063b88d4fde11610064578063b88d4fde14610369578063c87b56dd14610392578063d204c45e146103cf578063e985e9c5146103eb578063f2fde38b1461042857610109565b80638da5cb5b146102bf57806395d89b41146102ea5780639af1d35a14610315578063a22cb4651461034057610109565b806323b872dd116100dc57806323b872dd146101dc57806342842e0e146102055780636352211e1461022e57806370a082311461026b578063715018a6146102a857610109565b806301ffc9a71461010e57806306fdde031461014b578063081812fc14610176578063095ea7b3146101b3575b600080fd5b34801561011a57600080fd5b5061013560048036038101906101309190611e56565b610451565b6040516101429190611e9e565b60405180910390f35b34801561015757600080fd5b50610160610533565b60405161016d9190611f52565b60405180910390f35b34801561018257600080fd5b5061019d60048036038101906101989190611faa565b6105c5565b6040516101aa9190612018565b60405180910390f35b3480156101bf57600080fd5b506101da60048036038101906101d5919061205f565b61064a565b005b3480156101e857600080fd5b5061020360048036038101906101fe919061209f565b610762565b005b34801561021157600080fd5b5061022c6004803603810190610227919061209f565b6107c2565b005b34801561023a57600080fd5b5061025560048036038101906102509190611faa565b6107e2565b6040516102629190612018565b60405180910390f35b34801561027757600080fd5b50610292600480360381019061028d91906120f2565b610894565b60405161029f919061212e565b60405180910390f35b3480156102b457600080fd5b506102bd61094c565b005b3480156102cb57600080fd5b506102d46109d4565b6040516102e19190612018565b60405180910390f35b3480156102f657600080fd5b506102ff6109fe565b60405161030c9190611f52565b60405180910390f35b34801561032157600080fd5b5061032a610a90565b604051610337919061212e565b60405180910390f35b34801561034c57600080fd5b5061036760048036038101906103629190612175565b610a96565b005b34801561037557600080fd5b50610390600480360381019061038b91906122ea565b610aac565b005b34801561039e57600080fd5b506103b960048036038101906103b49190611faa565b610b0e565b6040516103c69190611f52565b60405180910390f35b6103e960048036038101906103e4919061240e565b610b20565b005b3480156103f757600080fd5b50610412600480360381019061040d919061246a565b610c3f565b60405161041f9190611e9e565b60405180910390f35b34801561043457600080fd5b5061044f600480360381019061044a91906120f2565b610cd3565b005b60007f80ac58cd000000000000000000000000000000000000000000000000000000007bffffffffffffffffffffffffffffffffffffffffffffffffffffffff1916827bffffffffffffffffffffffffffffffffffffffffffffffffffffffff1916148061051c57507f5b5e139f000000000000000000000000000000000000000000000000000000007bffffffffffffffffffffffffffffffffffffffffffffffffffffffff1916827bffffffffffffffffffffffffffffffffffffffffffffffffffffffff1916145b8061052c575061052b82610dcb565b5b9050919050565b606060008054610542906124d9565b80601f016020809104026020016040519081016040528092919081815260200182805461056e906124d9565b80156105bb5780601f10610590576101008083540402835291602001916105bb565b820191906000526020600020905b81548152906001019060200180831161059e57829003601f168201915b5050505050905090565b60006105d082610e35565b61060f576040517f08c379a00000000000000000000000000000000000000000000000000000000081526004016106069061257d565b60405180910390fd5b6004600083815260200190815260200160002060009054906101000a900473ffffffffffffffffffffffffffffffffffffffff169050919050565b6000610655826107e2565b90508073ffffffffffffffffffffffffffffffffffffffff168373ffffffffffffffffffffffffffffffffffffffff1614156106c6576040517f08c379a00000000000000000000000000000000000000000000000000000000081526004016106bd9061260f565b60405180910390fd5b8073ffffffffffffffffffffffffffffffffffffffff166106e5610ea1565b73ffffffffffffffffffffffffffffffffffffffff16148061071457506107138161070e610ea1565b610c3f565b5b610753576040517f08c379a000000000000000000000000000000000000000000000000000000000815260040161074a906126a1565b60405180910390fd5b61075d8383610ea9565b505050565b61077361076d610ea1565b82610f62565b6107b2576040517f08c379a00000000000000000000000000000000000000000000000000000000081526004016107a990612733565b60405180910390fd5b6107bd838383611040565b505050565b6107dd83838360405180602001604052806000815250610aac565b505050565b6000806002600084815260200190815260200160002060009054906101000a900473ffffffffffffffffffffffffffffffffffffffff169050600073ffffffffffffffffffffffffffffffffffffffff168173ffffffffffffffffffffffffffffffffffffffff16141561088b576040517f08c379a0000000000000000000000000000000000000000000000000000000008152600401610882906127c5565b60405180910390fd5b80915050919050565b60008073ffffffffffffffffffffffffffffffffffffffff168273ffffffffffffffffffffffffffffffffffffffff161415610905576040517f08c379a00000000000000000000000000000000000000000000000000000000081526004016108fc90612857565b60405180910390fd5b600360008373ffffffffffffffffffffffffffffffffffffffff1673ffffffffffffffffffffffffffffffffffffffff168152602001908152602001600020549050919050565b610954610ea1565b73ffffffffffffffffffffffffffffffffffffffff166109726109d4565b73ffffffffffffffffffffffffffffffffffffffff16146109c8576040517f08c379a00000000000000000000000000000000000000000000000000000000081526004016109bf906128c3565b60405180910390fd5b6109d260006112a7565b565b6000600760009054906101000a900473ffffffffffffffffffffffffffffffffffffffff16905090565b606060018054610a0d906124d9565b80601f0160208091040260200160405190810160405280929190818152602001828054610a39906124d9565b8015610a865780601f10610a5b57610100808354040283529160200191610a86565b820191906000526020600020905b815481529060010190602001808311610a6957829003601f168201915b5050505050905090565b60095481565b610aa8610aa1610ea1565b838361136d565b5050565b610abd610ab7610ea1565b83610f62565b610afc576040517f08c379a0000000000000000000000000000000000000000000000000000000008152600401610af390612733565b60405180910390fd5b610b08848484846114da565b50505050565b6060610b1982611536565b9050919050565b600954341015610b6757346040517fd3998040000000000000000000000000000000000000000000000000000000008152600401610b5e919061212e565b60405180910390fd5b610b6f6109d4565b73ffffffffffffffffffffffffffffffffffffffff166108fc6009549081150290604051600060405180830381858888f19350505050158015610bb6573d6000803e3d6000fd5b506000610bc36008611688565b9050610bcf6008611696565b610bd983826116ac565b610be381836116ca565b60004790506000811115610c39573373ffffffffffffffffffffffffffffffffffffffff166108fc479081150290604051600060405180830381858888f19350505050158015610c37573d6000803e3d6000fd5b505b50505050565b6000600560008473ffffffffffffffffffffffffffffffffffffffff1673ffffffffffffffffffffffffffffffffffffffff16815260200190815260200160002060008373ffffffffffffffffffffffffffffffffffffffff1673ffffffffffffffffffffffffffffffffffffffff16815260200190815260200160002060009054906101000a900460ff16905092915050565b610cdb610ea1565b73ffffffffffffffffffffffffffffffffffffffff16610cf96109d4565b73ffffffffffffffffffffffffffffffffffffffff1614610d4f576040517f08c379a0000000000000000000000000000000000000000000000000000000008152600401610d46906128c3565b60405180910390fd5b600073ffffffffffffffffffffffffffffffffffffffff168173ffffffffffffffffffffffffffffffffffffffff161415610dbf576040517f08c379a0000000000000000000000000000000000000000000000000000000008152600401610db690612955565b60405180910390fd5b610dc8816112a7565b50565b60007f01ffc9a7000000000000000000000000000000000000000000000000000000007bffffffffffffffffffffffffffffffffffffffffffffffffffffffff1916827bffffffffffffffffffffffffffffffffffffffffffffffffffffffff1916149050919050565b60008073ffffffffffffffffffffffffffffffffffffffff166002600084815260200190815260200160002060009054906101000a900473ffffffffffffffffffffffffffffffffffffffff1673ffffffffffffffffffffffffffffffffffffffff1614159050919050565b600033905090565b816004600083815260200190815260200160002060006101000a81548173ffffffffffffffffffffffffffffffffffffffff021916908373ffffffffffffffffffffffffffffffffffffffff160217905550808273ffffffffffffffffffffffffffffffffffffffff16610f1c836107e2565b73ffffffffffffffffffffffffffffffffffffffff167f8c5be1e5ebec7d5bd14f71427d1e84f3dd0314c0f7b2291e5b200ac8c7c3b92560405160405180910390a45050565b6000610f6d82610e35565b610fac576040517f08c379a0000000000000000000000000000000000000000000000000000000008152600401610fa3906129e7565b60405180910390fd5b6000610fb7836107e2565b90508073ffffffffffffffffffffffffffffffffffffffff168473ffffffffffffffffffffffffffffffffffffffff16148061102657508373ffffffffffffffffffffffffffffffffffffffff1661100e846105c5565b73ffffffffffffffffffffffffffffffffffffffff16145b8061103757506110368185610c3f565b5b91505092915050565b8273ffffffffffffffffffffffffffffffffffffffff16611060826107e2565b73ffffffffffffffffffffffffffffffffffffffff16146110b6576040517f08c379a00000000000000000000000000000000000000000000000000000000081526004016110ad90612a79565b60405180910390fd5b600073ffffffffffffffffffffffffffffffffffffffff168273ffffffffffffffffffffffffffffffffffffffff161415611126576040517f08c379a000000000000000000000000000000000000000000000000000000000815260040161111d90612b0b565b60405180910390fd5b61113183838361173e565b61113c600082610ea9565b6001600360008573ffffffffffffffffffffffffffffffffffffffff1673ffffffffffffffffffffffffffffffffffffffff168152602001908152602001600020600082825461118c9190612b5a565b925050819055506001600360008473ffffffffffffffffffffffffffffffffffffffff1673ffffffffffffffffffffffffffffffffffffffff16815260200190815260200160002060008282546111e39190612b8e565b92505081905550816002600083815260200190815260200160002060006101000a81548173ffffffffffffffffffffffffffffffffffffffff021916908373ffffffffffffffffffffffffffffffffffffffff160217905550808273ffffffffffffffffffffffffffffffffffffffff168473ffffffffffffffffffffffffffffffffffffffff167fddf252ad1be2c89b69c2b068fc378daa952ba7f163c4a11628f55a4df523b3ef60405160405180910390a46112a2838383611743565b505050565b6000600760009054906101000a900473ffffffffffffffffffffffffffffffffffffffff16905081600760006101000a81548173ffffffffffffffffffffffffffffffffffffffff021916908373ffffffffffffffffffffffffffffffffffffffff1602179055508173ffffffffffffffffffffffffffffffffffffffff168173ffffffffffffffffffffffffffffffffffffffff167f8be0079c531659141344cd1fd0a4f28419497f9722a3daafe3b4186f6b6457e060405160405180910390a35050565b8173ffffffffffffffffffffffffffffffffffffffff168373ffffffffffffffffffffffffffffffffffffffff1614156113dc576040517f08c379a00000000000000000000000000000000000000000000000000000000081526004016113d390612c30565b60405180910390fd5b80600560008573ffffffffffffffffffffffffffffffffffffffff1673ffffffffffffffffffffffffffffffffffffffff16815260200190815260200160002060008473ffffffffffffffffffffffffffffffffffffffff1673ffffffffffffffffffffffffffffffffffffffff16815260200190815260200160002060006101000a81548160ff0219169083151502179055508173ffffffffffffffffffffffffffffffffffffffff168373ffffffffffffffffffffffffffffffffffffffff167f17307eab39ab6107e8899845ad3d59bd9653f200f220920489ca2b5937696c31836040516114cd9190611e9e565b60405180910390a3505050565b6114e5848484611040565b6114f184848484611748565b611530576040517f08c379a000000000000000000000000000000000000000000000000000000000815260040161152790612cc2565b60405180910390fd5b50505050565b606061154182610e35565b611580576040517f08c379a000000000000000000000000000000000000000000000000000000000815260040161157790612d54565b60405180910390fd5b60006006600084815260200190815260200160002080546115a0906124d9565b80601f01602080910402602001604051908101604052809291908181526020018280546115cc906124d9565b80156116195780601f106115ee57610100808354040283529160200191611619565b820191906000526020600020905b8154815290600101906020018083116115fc57829003601f168201915b50505050509050600061162a6118d0565b9050600081511415611640578192505050611683565b60008251111561167557808260405160200161165d929190612db0565b60405160208183030381529060405292505050611683565b61167e846118e7565b925050505b919050565b600081600001549050919050565b6001816000016000828254019250508190555050565b6116c682826040518060200160405280600081525061198e565b5050565b6116d382610e35565b611712576040517f08c379a000000000000000000000000000000000000000000000000000000000815260040161170990612e46565b60405180910390fd5b80600660008481526020019081526020016000209080519060200190611739929190611d47565b505050565b505050565b505050565b60006117698473ffffffffffffffffffffffffffffffffffffffff166119e9565b156118c3578373ffffffffffffffffffffffffffffffffffffffff1663150b7a02611792610ea1565b8786866040518563ffffffff1660e01b81526004016117b49493929190612ebb565b6020604051808303816000875af19250505080156117f057506040513d601f19601f820116820180604052508101906117ed9190612f1c565b60015b611873573d8060008114611820576040519150601f19603f3d011682016040523d82523d6000602084013e611825565b606091505b5060008151141561186b576040517f08c379a000000000000000000000000000000000000000000000000000000000815260040161186290612cc2565b60405180910390fd5b805181602001fd5b63150b7a0260e01b7bffffffffffffffffffffffffffffffffffffffffffffffffffffffff1916817bffffffffffffffffffffffffffffffffffffffffffffffffffffffff1916149150506118c8565b600190505b949350505050565b606060405180602001604052806000815250905090565b60606118f282610e35565b611931576040517f08c379a000000000000000000000000000000000000000000000000000000000815260040161192890612fbb565b60405180910390fd5b600061193b6118d0565b9050600081511161195b5760405180602001604052806000815250611986565b8061196584611a0c565b604051602001611976929190612db0565b6040516020818303038152906040525b915050919050565b6119988383611b6d565b6119a56000848484611748565b6119e4576040517f08c379a00000000000000000000000000000000000000000000000000000000081526004016119db90612cc2565b60405180910390fd5b505050565b6000808273ffffffffffffffffffffffffffffffffffffffff163b119050919050565b60606000821415611a54576040518060400160405280600181526020017f30000000000000000000000000000000000000000000000000000000000000008152509050611b68565b600082905060005b60008214611a86578080611a6f90612fdb565b915050600a82611a7f9190613053565b9150611a5c565b60008167ffffffffffffffff811115611aa257611aa16121bf565b5b6040519080825280601f01601f191660200182016040528015611ad45781602001600182028036833780820191505090505b5090505b60008514611b6157600182611aed9190612b5a565b9150600a85611afc9190613084565b6030611b089190612b8e565b60f81b818381518110611b1e57611b1d6130b5565b5b60200101907effffffffffffffffffffffffffffffffffffffffffffffffffffffffffffff1916908160001a905350600a85611b5a9190613053565b9450611ad8565b8093505050505b919050565b600073ffffffffffffffffffffffffffffffffffffffff168273ffffffffffffffffffffffffffffffffffffffff161415611bdd576040517f08c379a0000000000000000000000000000000000000000000000000000000008152600401611bd490613130565b60405180910390fd5b611be681610e35565b15611c26576040517f08c379a0000000000000000000000000000000000000000000000000000000008152600401611c1d9061319c565b60405180910390fd5b611c326000838361173e565b6001600360008473ffffffffffffffffffffffffffffffffffffffff1673ffffffffffffffffffffffffffffffffffffffff1681526020019081526020016000206000828254611c829190612b8e565b92505081905550816002600083815260200190815260200160002060006101000a81548173ffffffffffffffffffffffffffffffffffffffff021916908373ffffffffffffffffffffffffffffffffffffffff160217905550808273ffffffffffffffffffffffffffffffffffffffff16600073ffffffffffffffffffffffffffffffffffffffff167fddf252ad1be2c89b69c2b068fc378daa952ba7f163c4a11628f55a4df523b3ef60405160405180910390a4611d4360008383611743565b5050565b828054611d53906124d9565b90600052602060002090601f016020900481019282611d755760008555611dbc565b82601f10611d8e57805160ff1916838001178555611dbc565b82800160010185558215611dbc579182015b82811115611dbb578251825591602001919060010190611da0565b5b509050611dc99190611dcd565b5090565b5b80821115611de6576000816000905550600101611dce565b5090565b6000604051905090565b600080fd5b600080fd5b60007fffffffff0000000000000000000000000000000000000000000000000000000082169050919050565b611e3381611dfe565b8114611e3e57600080fd5b50565b600081359050611e5081611e2a565b92915050565b600060208284031215611e6c57611e6b611df4565b5b6000611e7a84828501611e41565b91505092915050565b60008115159050919050565b611e9881611e83565b82525050565b6000602082019050611eb36000830184611e8f565b92915050565b600081519050919050565b600082825260208201905092915050565b60005b83811015611ef3578082015181840152602081019050611ed8565b83811115611f02576000848401525b50505050565b6000601f19601f8301169050919050565b6000611f2482611eb9565b611f2e8185611ec4565b9350611f3e818560208601611ed5565b611f4781611f08565b840191505092915050565b60006020820190508181036000830152611f6c8184611f19565b905092915050565b6000819050919050565b611f8781611f74565b8114611f9257600080fd5b50565b600081359050611fa481611f7e565b92915050565b600060208284031215611fc057611fbf611df4565b5b6000611fce84828501611f95565b91505092915050565b600073ffffffffffffffffffffffffffffffffffffffff82169050919050565b600061200282611fd7565b9050919050565b61201281611ff7565b82525050565b600060208201905061202d6000830184612009565b92915050565b61203c81611ff7565b811461204757600080fd5b50565b60008135905061205981612033565b92915050565b6000806040838503121561207657612075611df4565b5b60006120848582860161204a565b925050602061209585828601611f95565b9150509250929050565b6000806000606084860312156120b8576120b7611df4565b5b60006120c68682870161204a565b93505060206120d78682870161204a565b92505060406120e886828701611f95565b9150509250925092565b60006020828403121561210857612107611df4565b5b60006121168482850161204a565b91505092915050565b61212881611f74565b82525050565b6000602082019050612143600083018461211f565b92915050565b61215281611e83565b811461215d57600080fd5b50565b60008135905061216f81612149565b92915050565b6000806040838503121561218c5761218b611df4565b5b600061219a8582860161204a565b92505060206121ab85828601612160565b9150509250929050565b600080fd5b600080fd5b7f4e487b7100000000000000000000000000000000000000000000000000000000600052604160045260246000fd5b6121f782611f08565b810181811067ffffffffffffffff82111715612216576122156121bf565b5b80604052505050565b6000612229611dea565b905061223582826121ee565b919050565b600067ffffffffffffffff821115612255576122546121bf565b5b61225e82611f08565b9050602081019050919050565b82818337600083830152505050565b600061228d6122888461223a565b61221f565b9050828152602081018484840111156122a9576122a86121ba565b5b6122b484828561226b565b509392505050565b600082601f8301126122d1576122d06121b5565b5b81356122e184826020860161227a565b91505092915050565b6000806000806080858703121561230457612303611df4565b5b60006123128782880161204a565b94505060206123238782880161204a565b935050604061233487828801611f95565b925050606085013567ffffffffffffffff81111561235557612354611df9565b5b612361878288016122bc565b91505092959194509250565b600067ffffffffffffffff821115612388576123876121bf565b5b61239182611f08565b9050602081019050919050565b60006123b16123ac8461236d565b61221f565b9050828152602081018484840111156123cd576123cc6121ba565b5b6123d884828561226b565b509392505050565b600082601f8301126123f5576123f46121b5565b5b813561240584826020860161239e565b91505092915050565b6000806040838503121561242557612424611df4565b5b60006124338582860161204a565b925050602083013567ffffffffffffffff81111561245457612453611df9565b5b612460858286016123e0565b9150509250929050565b6000806040838503121561248157612480611df4565b5b600061248f8582860161204a565b92505060206124a08582860161204a565b9150509250929050565b7f4e487b7100000000000000000000000000000000000000000000000000000000600052602260045260246000fd5b600060028204905060018216806124f157607f821691505b60208210811415612505576125046124aa565b5b50919050565b7f4552433732313a20617070726f76656420717565727920666f72206e6f6e657860008201527f697374656e7420746f6b656e0000000000000000000000000000000000000000602082015250565b6000612567602c83611ec4565b91506125728261250b565b604082019050919050565b600060208201905081810360008301526125968161255a565b9050919050565b7f4552433732313a20617070726f76616c20746f2063757272656e74206f776e6560008201527f7200000000000000000000000000000000000000000000000000000000000000602082015250565b60006125f9602183611ec4565b91506126048261259d565b604082019050919050565b60006020820190508181036000830152612628816125ec565b9050919050565b7f4552433732313a20617070726f76652063616c6c6572206973206e6f74206f7760008201527f6e6572206e6f7220617070726f76656420666f7220616c6c0000000000000000602082015250565b600061268b603883611ec4565b91506126968261262f565b604082019050919050565b600060208201905081810360008301526126ba8161267e565b9050919050565b7f4552433732313a207472616e736665722063616c6c6572206973206e6f74206f60008201527f776e6572206e6f7220617070726f766564000000000000000000000000000000602082015250565b600061271d603183611ec4565b9150612728826126c1565b604082019050919050565b6000602082019050818103600083015261274c81612710565b9050919050565b7f4552433732313a206f776e657220717565727920666f72206e6f6e657869737460008201527f656e7420746f6b656e0000000000000000000000000000000000000000000000602082015250565b60006127af602983611ec4565b91506127ba82612753565b604082019050919050565b600060208201905081810360008301526127de816127a2565b9050919050565b7f4552433732313a2062616c616e636520717565727920666f7220746865207a6560008201527f726f206164647265737300000000000000000000000000000000000000000000602082015250565b6000612841602a83611ec4565b915061284c826127e5565b604082019050919050565b6000602082019050818103600083015261287081612834565b9050919050565b7f4f776e61626c653a2063616c6c6572206973206e6f7420746865206f776e6572600082015250565b60006128ad602083611ec4565b91506128b882612877565b602082019050919050565b600060208201905081810360008301526128dc816128a0565b9050919050565b7f4f776e61626c653a206e6577206f776e657220697320746865207a65726f206160008201527f6464726573730000000000000000000000000000000000000000000000000000602082015250565b600061293f602683611ec4565b915061294a826128e3565b604082019050919050565b6000602082019050818103600083015261296e81612932565b9050919050565b7f4552433732313a206f70657261746f7220717565727920666f72206e6f6e657860008201527f697374656e7420746f6b656e0000000000000000000000000000000000000000602082015250565b60006129d1602c83611ec4565b91506129dc82612975565b604082019050919050565b60006020820190508181036000830152612a00816129c4565b9050919050565b7f4552433732313a207472616e736665722066726f6d20696e636f72726563742060008201527f6f776e6572000000000000000000000000000000000000000000000000000000602082015250565b6000612a63602583611ec4565b9150612a6e82612a07565b604082019050919050565b60006020820190508181036000830152612a9281612a56565b9050919050565b7f4552433732313a207472616e7366657220746f20746865207a65726f2061646460008201527f7265737300000000000000000000000000000000000000000000000000000000602082015250565b6000612af5602483611ec4565b9150612b0082612a99565b604082019050919050565b60006020820190508181036000830152612b2481612ae8565b9050919050565b7f4e487b7100000000000000000000000000000000000000000000000000000000600052601160045260246000fd5b6000612b6582611f74565b9150612b7083611f74565b925082821015612b8357612b82612b2b565b5b828203905092915050565b6000612b9982611f74565b9150612ba483611f74565b9250827fffffffffffffffffffffffffffffffffffffffffffffffffffffffffffffffff03821115612bd957612bd8612b2b565b5b828201905092915050565b7f4552433732313a20617070726f766520746f2063616c6c657200000000000000600082015250565b6000612c1a601983611ec4565b9150612c2582612be4565b602082019050919050565b60006020820190508181036000830152612c4981612c0d565b9050919050565b7f4552433732313a207472616e7366657220746f206e6f6e20455243373231526560008201527f63656976657220696d706c656d656e7465720000000000000000000000000000602082015250565b6000612cac603283611ec4565b9150612cb782612c50565b604082019050919050565b60006020820190508181036000830152612cdb81612c9f565b9050919050565b7f45524337323155524953746f726167653a2055524920717565727920666f722060008201527f6e6f6e6578697374656e7420746f6b656e000000000000000000000000000000602082015250565b6000612d3e603183611ec4565b9150612d4982612ce2565b604082019050919050565b60006020820190508181036000830152612d6d81612d31565b9050919050565b600081905092915050565b6000612d8a82611eb9565b612d948185612d74565b9350612da4818560208601611ed5565b80840191505092915050565b6000612dbc8285612d7f565b9150612dc88284612d7f565b91508190509392505050565b7f45524337323155524953746f726167653a2055524920736574206f66206e6f6e60008201527f6578697374656e7420746f6b656e000000000000000000000000000000000000602082015250565b6000612e30602e83611ec4565b9150612e3b82612dd4565b604082019050919050565b60006020820190508181036000830152612e5f81612e23565b9050919050565b600081519050919050565b600082825260208201905092915050565b6000612e8d82612e66565b612e978185612e71565b9350612ea7818560208601611ed5565b612eb081611f08565b840191505092915050565b6000608082019050612ed06000830187612009565b612edd6020830186612009565b612eea604083018561211f565b8181036060830152612efc8184612e82565b905095945050505050565b600081519050612f1681611e2a565b92915050565b600060208284031215612f3257612f31611df4565b5b6000612f4084828501612f07565b91505092915050565b7f4552433732314d657461646174613a2055524920717565727920666f72206e6f60008201527f6e6578697374656e7420746f6b656e0000000000000000000000000000000000602082015250565b6000612fa5602f83611ec4565b9150612fb082612f49565b604082019050919050565b60006020820190508181036000830152612fd481612f98565b9050919050565b6000612fe682611f74565b91507fffffffffffffffffffffffffffffffffffffffffffffffffffffffffffffffff82141561301957613018612b2b565b5b600182019050919050565b7f4e487b7100000000000000000000000000000000000000000000000000000000600052601260045260246000fd5b600061305e82611f74565b915061306983611f74565b92508261307957613078613024565b5b828204905092915050565b600061308f82611f74565b915061309a83611f74565b9250826130aa576130a9613024565b5b828206905092915050565b7f4e487b7100000000000000000000000000000000000000000000000000000000600052603260045260246000fd5b7f4552433732313a206d696e7420746f20746865207a65726f2061646472657373600082015250565b600061311a602083611ec4565b9150613125826130e4565b602082019050919050565b600060208201905081810360008301526131498161310d565b9050919050565b7f4552433732313a20746f6b656e20616c7265616479206d696e74656400000000600082015250565b6000613186601c83611ec4565b915061319182613150565b602082019050919050565b600060208201905081810360008301526131b581613179565b905091905056fea2646970667358221220207633bd994c31b588a3c585694bd9eaf9610a9db70ee59f0b992ba4eab3408a64736f6c634300080b0033",
  "linkReferences": {},
  "deployedLinkReferences": {}
}