{
  "_format": "hh-sol-artifact-1",
  "contractName": "NFT",
  "sourceName": "contracts/NFT.sol",
  "abi": [
    {
      "inputs": [
        {
          "internalType": "string",
          "name": "name_",
          "type": "string"
        },
        {
          "internalType": "string",
          "name": "symbol_",
          "type": "string"
        },
        {
          "internalType": "uint256",
          "name": "fees_",
          "type": "uint256"
        }
      ],
      "stateMutability": "nonpayable",
      "type": "constructor"
    },
    {
      "inputs": [
        {
          "internalType": "uint256",
          "name": "ethersAmount",
          "type": "uint256"
        }
      ],
      "name": "ethersNotSufficient",
      "type": "error"
    },
    {
      "anonymous": false,
      "inputs": [
        {
          "indexed": true,
          "internalType": "address",
          "name": "owner",
          "type": "address"
        },
        {
          "indexed": true,
          "internalType": "address",
          "name": "approved",
          "type": "address"
        },
        {
          "indexed": true,
          "internalType": "uint256",
          "name": "tokenId",
          "type": "uint256"
        }
      ],
      "name": "Approval",
      "type": "event"
    },
    {
      "anonymous": false,
      "inputs": [
        {
          "indexed": true,
          "internalType": "address",
          "name": "owner",
          "type": "address"
        },
        {
          "indexed": true,
          "internalType": "address",
          "name": "operator",
          "type": "address"
        },
        {
          "indexed": false,
          "internalType": "bool",
          "name": "approved",
          "type": "bool"
        }
      ],
      "name": "ApprovalForAll",
      "type": "event"
    },
    {
      "anonymous": false,
      "inputs": [
        {
          "indexed": true,
          "internalType": "address",
          "name": "previousOwner",
          "type": "address"
        },
        {
          "indexed": true,
          "internalType": "address",
          "name": "newOwner",
          "type": "address"
        }
      ],
      "name": "OwnershipTransferred",
      "type": "event"
    },
    {
      "anonymous": false,
      "inputs": [
        {
          "indexed": true,
          "internalType": "address",
          "name": "from",
          "type": "address"
        },
        {
          "indexed": true,
          "internalType": "address",
          "name": "to",
          "type": "address"
        },
        {
          "indexed": true,
          "internalType": "uint256",
          "name": "tokenId",
          "type": "uint256"
        }
      ],
      "name": "Transfer",
      "type": "event"
    },
    {
      "anonymous": false,
      "inputs": [
        {
          "indexed": false,
          "internalType": "address",
          "name": "owner",
          "type": "address"
        },
        {
          "indexed": false,
          "internalType": "string",
          "name": "tokenURI",
          "type": "string"
        },
        {
          "indexed": false,
          "internalType": "uint256",
          "name": "tokenId",
          "type": "uint256"
        }
      ],
      "name": "safeMinted",
      "type": "event"
    },
    {
      "inputs": [
        {
          "internalType": "address",
          "name": "to",
          "type": "address"
        },
        {
          "internalType": "uint256",
          "name": "tokenId",
          "type": "uint256"
        }
      ],
      "name": "approve",
      "outputs": [],
      "stateMutability": "nonpayable",
      "type": "function"
    },
    {
      "inputs": [
        {
          "internalType": "address",
          "name": "owner",
          "type": "address"
        }
      ],
      "name": "balanceOf",
      "outputs": [
        {
          "internalType": "uint256",
          "name": "",
          "type": "uint256"
        }
      ],
      "stateMutability": "view",
      "type": "function"
    },
    {
      "inputs": [],
      "name": "fees",
      "outputs": [
        {
          "internalType": "uint256",
          "name": "",
          "type": "uint256"
        }
      ],
      "stateMutability": "view",
      "type": "function"
    },
    {
      "inputs": [
        {
          "internalType": "uint256",
          "name": "tokenId",
          "type": "uint256"
        }
      ],
      "name": "getApproved",
      "outputs": [
        {
          "internalType": "address",
          "name": "",
          "type": "address"
        }
      ],
      "stateMutability": "view",
      "type": "function"
    },
    {
      "inputs": [
        {
          "internalType": "address",
          "name": "owner",
          "type": "address"
        },
        {
          "internalType": "address",
          "name": "operator",
          "type": "address"
        }
      ],
      "name": "isApprovedForAll",
      "outputs": [
        {
          "internalType": "bool",
          "name": "",
          "type": "bool"
        }
      ],
      "stateMutability": "view",
      "type": "function"
    },
    {
      "inputs": [],
      "name": "name",
      "outputs": [
        {
          "internalType": "string",
          "name": "",
          "type": "string"
        }
      ],
      "stateMutability": "view",
      "type": "function"
    },
    {
      "inputs": [],
      "name": "owner",
      "outputs": [
        {
          "internalType": "address",
          "name": "",
          "type": "address"
        }
      ],
      "stateMutability": "view",
      "type": "function"
    },
    {
      "inputs": [
        {
          "internalType": "uint256",
          "name": "tokenId",
          "type": "uint256"
        }
      ],
      "name": "ownerOf",
      "outputs": [
        {
          "internalType": "address",
          "name": "",
          "type": "address"
        }
      ],
      "stateMutability": "view",
      "type": "function"
    },
    {
      "inputs": [],
      "name": "renounceOwnership",
      "outputs": [],
      "stateMutability": "nonpayable",
      "type": "function"
    },
    {
      "inputs": [
        {
          "internalType": "address",
          "name": "to",
          "type": "address"
        },
        {
          "internalType": "string",
          "name": "uri",
          "type": "string"
        }
      ],
      "name": "safeMint",
      "outputs": [],
      "stateMutability": "payable",
      "type": "function"
    },
    {
      "inputs": [
        {
          "internalType": "address",
          "name": "from",
          "type": "address"
        },
        {
          "internalType": "address",
          "name": "to",
          "type": "address"
        },
        {
          "internalType": "uint256",
          "name": "tokenId",
          "type": "uint256"
        }
      ],
      "name": "safeTransferFrom",
      "outputs": [],
      "stateMutability": "nonpayable",
      "type": "function"
    },
    {
      "inputs": [
        {
          "internalType": "address",
          "name": "from",
          "type": "address"
        },
        {
          "internalType": "address",
          "name": "to",
          "type": "address"
        },
        {
          "internalType": "uint256",
          "name": "tokenId",
          "type": "uint256"
        },
        {
          "internalType": "bytes",
          "name": "_data",
          "type": "bytes"
        }
      ],
      "name": "safeTransferFrom",
      "outputs": [],
      "stateMutability": "nonpayable",
      "type": "function"
    },
    {
      "inputs": [
        {
          "internalType": "address",
          "name": "operator",
          "type": "address"
        },
        {
          "internalType": "bool",
          "name": "approved",
          "type": "bool"
        }
      ],
      "name": "setApprovalForAll",
      "outputs": [],
      "stateMutability": "nonpayable",
      "type": "function"
    },
    {
      "inputs": [
        {
          "internalType": "bytes4",
          "name": "interfaceId",
          "type": "bytes4"
        }
      ],
      "name": "supportsInterface",
      "outputs": [
        {
          "internalType": "bool",
          "name": "",
          "type": "bool"
        }
      ],
      "stateMutability": "view",
      "type": "function"
    },
    {
      "inputs": [],
      "name": "symbol",
      "outputs": [
        {
          "internalType": "string",
          "name": "",
          "type": "string"
        }
      ],
      "stateMutability": "view",
      "type": "function"
    },
    {
      "inputs": [
        {
          "internalType": "uint256",
          "name": "tokenId",
          "type": "uint256"
        }
      ],
      "name": "tokenURI",
      "outputs": [
        {
          "internalType": "string",
          "name": "",
          "type": "string"
        }
      ],
      "stateMutability": "view",
      "type": "function"
    },
    {
      "inputs": [
        {
          "internalType": "address",
          "name": "from",
          "type": "address"
        },
        {
          "internalType": "address",
          "name": "to",
          "type": "address"
        },
        {
          "internalType": "uint256",
          "name": "tokenId",
          "type": "uint256"
        }
      ],
      "name": "transferFrom",
      "outputs": [],
      "stateMutability": "nonpayable",
      "type": "function"
    },
    {
      "inputs": [
        {
          "internalType": "address",
          "name": "newOwner",
          "type": "address"
        }
      ],
      "name": "transferOwnership",
      "outputs": [],
      "stateMutability": "nonpayable",
      "type": "function"
    }
  ],
  "bytecode": "0x60806040523480156200001157600080fd5b506040516200376d3803806200376d8339818101604052810190620000379190620003f3565b82828160009080519060200190620000519291906200016b565b5080600190805190602001906200006a9291906200016b565b5050506200008d620000816200009d60201b60201c565b620000a560201b60201c565b80600981905550505050620004f2565b600033905090565b6000600760009054906101000a900473ffffffffffffffffffffffffffffffffffffffff16905081600760006101000a81548173ffffffffffffffffffffffffffffffffffffffff021916908373ffffffffffffffffffffffffffffffffffffffff1602179055508173ffffffffffffffffffffffffffffffffffffffff168173ffffffffffffffffffffffffffffffffffffffff167f8be0079c531659141344cd1fd0a4f28419497f9722a3daafe3b4186f6b6457e060405160405180910390a35050565b8280546200017990620004bc565b90600052602060002090601f0160209004810192826200019d5760008555620001e9565b82601f10620001b857805160ff1916838001178555620001e9565b82800160010185558215620001e9579182015b82811115620001e8578251825591602001919060010190620001cb565b5b509050620001f89190620001fc565b5090565b5b8082111562000217576000816000905550600101620001fd565b5090565b6000604051905090565b600080fd5b600080fd5b600080fd5b600080fd5b6000601f19601f8301169050919050565b7f4e487b7100000000000000000000000000000000000000000000000000000000600052604160045260246000fd5b620002848262000239565b810181811067ffffffffffffffff82111715620002a657620002a56200024a565b5b80604052505050565b6000620002bb6200021b565b9050620002c9828262000279565b919050565b600067ffffffffffffffff821115620002ec57620002eb6200024a565b5b620002f78262000239565b9050602081019050919050565b60005b838110156200032457808201518184015260208101905062000307565b8381111562000334576000848401525b50505050565b6000620003516200034b84620002ce565b620002af565b90508281526020810184848401111562000370576200036f62000234565b5b6200037d84828562000304565b509392505050565b600082601f8301126200039d576200039c6200022f565b5b8151620003af8482602086016200033a565b91505092915050565b6000819050919050565b620003cd81620003b8565b8114620003d957600080fd5b50565b600081519050620003ed81620003c2565b92915050565b6000806000606084860312156200040f576200040e62000225565b5b600084015167ffffffffffffffff81111562000430576200042f6200022a565b5b6200043e8682870162000385565b935050602084015167ffffffffffffffff8111156200046257620004616200022a565b5b620004708682870162000385565b92505060406200048386828701620003dc565b9150509250925092565b7f4e487b7100000000000000000000000000000000000000000000000000000000600052602260045260246000fd5b60006002820490506001821680620004d557607f821691505b60208210811415620004ec57620004eb6200048d565b5b50919050565b61326b80620005026000396000f3fe6080604052600436106101095760003560e01c80638da5cb5b11610095578063b88d4fde11610064578063b88d4fde14610369578063c87b56dd14610392578063d204c45e146103cf578063e985e9c5146103eb578063f2fde38b1461042857610109565b80638da5cb5b146102bf57806395d89b41146102ea5780639af1d35a14610315578063a22cb4651461034057610109565b806323b872dd116100dc57806323b872dd146101dc57806342842e0e146102055780636352211e1461022e57806370a082311461026b578063715018a6146102a857610109565b806301ffc9a71461010e57806306fdde031461014b578063081812fc14610176578063095ea7b3146101b3575b600080fd5b34801561011a57600080fd5b5061013560048036038101906101309190611e91565b610451565b6040516101429190611ed9565b60405180910390f35b34801561015757600080fd5b50610160610533565b60405161016d9190611f8d565b60405180910390f35b34801561018257600080fd5b5061019d60048036038101906101989190611fe5565b6105c5565b6040516101aa9190612053565b60405180910390f35b3480156101bf57600080fd5b506101da60048036038101906101d5919061209a565b61064a565b005b3480156101e857600080fd5b5061020360048036038101906101fe91906120da565b610762565b005b34801561021157600080fd5b5061022c600480360381019061022791906120da565b6107c2565b005b34801561023a57600080fd5b5061025560048036038101906102509190611fe5565b6107e2565b6040516102629190612053565b60405180910390f35b34801561027757600080fd5b50610292600480360381019061028d919061212d565b610894565b60405161029f9190612169565b60405180910390f35b3480156102b457600080fd5b506102bd61094c565b005b3480156102cb57600080fd5b506102d46109d4565b6040516102e19190612053565b60405180910390f35b3480156102f657600080fd5b506102ff6109fe565b60405161030c9190611f8d565b60405180910390f35b34801561032157600080fd5b5061032a610a90565b6040516103379190612169565b60405180910390f35b34801561034c57600080fd5b50610367600480360381019061036291906121b0565b610a96565b005b34801561037557600080fd5b50610390600480360381019061038b9190612325565b610aac565b005b34801561039e57600080fd5b506103b960048036038101906103b49190611fe5565b610b0e565b6040516103c69190611f8d565b60405180910390f35b6103e960048036038101906103e49190612449565b610b20565b005b3480156103f757600080fd5b50610412600480360381019061040d91906124a5565b610c7a565b60405161041f9190611ed9565b60405180910390f35b34801561043457600080fd5b5061044f600480360381019061044a919061212d565b610d0e565b005b60007f80ac58cd000000000000000000000000000000000000000000000000000000007bffffffffffffffffffffffffffffffffffffffffffffffffffffffff1916827bffffffffffffffffffffffffffffffffffffffffffffffffffffffff1916148061051c57507f5b5e139f000000000000000000000000000000000000000000000000000000007bffffffffffffffffffffffffffffffffffffffffffffffffffffffff1916827bffffffffffffffffffffffffffffffffffffffffffffffffffffffff1916145b8061052c575061052b82610e06565b5b9050919050565b60606000805461054290612514565b80601f016020809104026020016040519081016040528092919081815260200182805461056e90612514565b80156105bb5780601f10610590576101008083540402835291602001916105bb565b820191906000526020600020905b81548152906001019060200180831161059e57829003601f168201915b5050505050905090565b60006105d082610e70565b61060f576040517f08c379a0000000000000000000000000000000000000000000000000000000008152600401610606906125b8565b60405180910390fd5b6004600083815260200190815260200160002060009054906101000a900473ffffffffffffffffffffffffffffffffffffffff169050919050565b6000610655826107e2565b90508073ffffffffffffffffffffffffffffffffffffffff168373ffffffffffffffffffffffffffffffffffffffff1614156106c6576040517f08c379a00000000000000000000000000000000000000000000000000000000081526004016106bd9061264a565b60405180910390fd5b8073ffffffffffffffffffffffffffffffffffffffff166106e5610edc565b73ffffffffffffffffffffffffffffffffffffffff16148061071457506107138161070e610edc565b610c7a565b5b610753576040517f08c379a000000000000000000000000000000000000000000000000000000000815260040161074a906126dc565b60405180910390fd5b61075d8383610ee4565b505050565b61077361076d610edc565b82610f9d565b6107b2576040517f08c379a00000000000000000000000000000000000000000000000000000000081526004016107a99061276e565b60405180910390fd5b6107bd83838361107b565b505050565b6107dd83838360405180602001604052806000815250610aac565b505050565b6000806002600084815260200190815260200160002060009054906101000a900473ffffffffffffffffffffffffffffffffffffffff169050600073ffffffffffffffffffffffffffffffffffffffff168173ffffffffffffffffffffffffffffffffffffffff16141561088b576040517f08c379a000000000000000000000000000000000000000000000000000000000815260040161088290612800565b60405180910390fd5b80915050919050565b60008073ffffffffffffffffffffffffffffffffffffffff168273ffffffffffffffffffffffffffffffffffffffff161415610905576040517f08c379a00000000000000000000000000000000000000000000000000000000081526004016108fc90612892565b60405180910390fd5b600360008373ffffffffffffffffffffffffffffffffffffffff1673ffffffffffffffffffffffffffffffffffffffff168152602001908152602001600020549050919050565b610954610edc565b73ffffffffffffffffffffffffffffffffffffffff166109726109d4565b73ffffffffffffffffffffffffffffffffffffffff16146109c8576040517f08c379a00000000000000000000000000000000000000000000000000000000081526004016109bf906128fe565b60405180910390fd5b6109d260006112e2565b565b6000600760009054906101000a900473ffffffffffffffffffffffffffffffffffffffff16905090565b606060018054610a0d90612514565b80601f0160208091040260200160405190810160405280929190818152602001828054610a3990612514565b8015610a865780601f10610a5b57610100808354040283529160200191610a86565b820191906000526020600020905b815481529060010190602001808311610a6957829003601f168201915b5050505050905090565b60095481565b610aa8610aa1610edc565b83836113a8565b5050565b610abd610ab7610edc565b83610f9d565b610afc576040517f08c379a0000000000000000000000000000000000000000000000000000000008152600401610af39061276e565b60405180910390fd5b610b0884848484611515565b50505050565b6060610b1982611571565b9050919050565b600954341015610b6757346040517fd3998040000000000000000000000000000000000000000000000000000000008152600401610b5e9190612169565b60405180910390fd5b610b6f6109d4565b73ffffffffffffffffffffffffffffffffffffffff166108fc6009549081150290604051600060405180830381858888f19350505050158015610bb6573d6000803e3d6000fd5b506000610bc360086116c3565b9050610bcf60086116d1565b610bd983826116e7565b610be38183611705565b60004790506000811115610c39573373ffffffffffffffffffffffffffffffffffffffff166108fc479081150290604051600060405180830381858888f19350505050158015610c37573d6000803e3d6000fd5b505b7fb3af2a24cf4c3b3c6108010361eaf8ef3cc08add3d6b38e2b51d236ad48c6c47848484604051610c6c9392919061291e565b60405180910390a150505050565b6000600560008473ffffffffffffffffffffffffffffffffffffffff1673ffffffffffffffffffffffffffffffffffffffff16815260200190815260200160002060008373ffffffffffffffffffffffffffffffffffffffff1673ffffffffffffffffffffffffffffffffffffffff16815260200190815260200160002060009054906101000a900460ff16905092915050565b610d16610edc565b73ffffffffffffffffffffffffffffffffffffffff16610d346109d4565b73ffffffffffffffffffffffffffffffffffffffff1614610d8a576040517f08c379a0000000000000000000000000000000000000000000000000000000008152600401610d81906128fe565b60405180910390fd5b600073ffffffffffffffffffffffffffffffffffffffff168173ffffffffffffffffffffffffffffffffffffffff161415610dfa576040517f08c379a0000000000000000000000000000000000000000000000000000000008152600401610df1906129ce565b60405180910390fd5b610e03816112e2565b50565b60007f01ffc9a7000000000000000000000000000000000000000000000000000000007bffffffffffffffffffffffffffffffffffffffffffffffffffffffff1916827bffffffffffffffffffffffffffffffffffffffffffffffffffffffff1916149050919050565b60008073ffffffffffffffffffffffffffffffffffffffff166002600084815260200190815260200160002060009054906101000a900473ffffffffffffffffffffffffffffffffffffffff1673ffffffffffffffffffffffffffffffffffffffff1614159050919050565b600033905090565b816004600083815260200190815260200160002060006101000a81548173ffffffffffffffffffffffffffffffffffffffff021916908373ffffffffffffffffffffffffffffffffffffffff160217905550808273ffffffffffffffffffffffffffffffffffffffff16610f57836107e2565b73ffffffffffffffffffffffffffffffffffffffff167f8c5be1e5ebec7d5bd14f71427d1e84f3dd0314c0f7b2291e5b200ac8c7c3b92560405160405180910390a45050565b6000610fa882610e70565b610fe7576040517f08c379a0000000000000000000000000000000000000000000000000000000008152600401610fde90612a60565b60405180910390fd5b6000610ff2836107e2565b90508073ffffffffffffffffffffffffffffffffffffffff168473ffffffffffffffffffffffffffffffffffffffff16148061103457506110338185610c7a565b5b8061107257508373ffffffffffffffffffffffffffffffffffffffff1661105a846105c5565b73ffffffffffffffffffffffffffffffffffffffff16145b91505092915050565b8273ffffffffffffffffffffffffffffffffffffffff1661109b826107e2565b73ffffffffffffffffffffffffffffffffffffffff16146110f1576040517f08c379a00000000000000000000000000000000000000000000000000000000081526004016110e890612af2565b60405180910390fd5b600073ffffffffffffffffffffffffffffffffffffffff168273ffffffffffffffffffffffffffffffffffffffff161415611161576040517f08c379a000000000000000000000000000000000000000000000000000000000815260040161115890612b84565b60405180910390fd5b61116c838383611779565b611177600082610ee4565b6001600360008573ffffffffffffffffffffffffffffffffffffffff1673ffffffffffffffffffffffffffffffffffffffff16815260200190815260200160002060008282546111c79190612bd3565b925050819055506001600360008473ffffffffffffffffffffffffffffffffffffffff1673ffffffffffffffffffffffffffffffffffffffff168152602001908152602001600020600082825461121e9190612c07565b92505081905550816002600083815260200190815260200160002060006101000a81548173ffffffffffffffffffffffffffffffffffffffff021916908373ffffffffffffffffffffffffffffffffffffffff160217905550808273ffffffffffffffffffffffffffffffffffffffff168473ffffffffffffffffffffffffffffffffffffffff167fddf252ad1be2c89b69c2b068fc378daa952ba7f163c4a11628f55a4df523b3ef60405160405180910390a46112dd83838361177e565b505050565b6000600760009054906101000a900473ffffffffffffffffffffffffffffffffffffffff16905081600760006101000a81548173ffffffffffffffffffffffffffffffffffffffff021916908373ffffffffffffffffffffffffffffffffffffffff1602179055508173ffffffffffffffffffffffffffffffffffffffff168173ffffffffffffffffffffffffffffffffffffffff167f8be0079c531659141344cd1fd0a4f28419497f9722a3daafe3b4186f6b6457e060405160405180910390a35050565b8173ffffffffffffffffffffffffffffffffffffffff168373ffffffffffffffffffffffffffffffffffffffff161415611417576040517f08c379a000000000000000000000000000000000000000000000000000000000815260040161140e90612ca9565b60405180910390fd5b80600560008573ffffffffffffffffffffffffffffffffffffffff1673ffffffffffffffffffffffffffffffffffffffff16815260200190815260200160002060008473ffffffffffffffffffffffffffffffffffffffff1673ffffffffffffffffffffffffffffffffffffffff16815260200190815260200160002060006101000a81548160ff0219169083151502179055508173ffffffffffffffffffffffffffffffffffffffff168373ffffffffffffffffffffffffffffffffffffffff167f17307eab39ab6107e8899845ad3d59bd9653f200f220920489ca2b5937696c31836040516115089190611ed9565b60405180910390a3505050565b61152084848461107b565b61152c84848484611783565b61156b576040517f08c379a000000000000000000000000000000000000000000000000000000000815260040161156290612d3b565b60405180910390fd5b50505050565b606061157c82610e70565b6115bb576040517f08c379a00000000000000000000000000000000000000000000000000000000081526004016115b290612dcd565b60405180910390fd5b60006006600084815260200190815260200160002080546115db90612514565b80601f016020809104026020016040519081016040528092919081815260200182805461160790612514565b80156116545780601f1061162957610100808354040283529160200191611654565b820191906000526020600020905b81548152906001019060200180831161163757829003601f168201915b50505050509050600061166561190b565b905060008151141561167b5781925050506116be565b6000825111156116b0578082604051602001611698929190612e29565b604051602081830303815290604052925050506116be565b6116b984611922565b925050505b919050565b600081600001549050919050565b6001816000016000828254019250508190555050565b6117018282604051806020016040528060008152506119c9565b5050565b61170e82610e70565b61174d576040517f08c379a000000000000000000000000000000000000000000000000000000000815260040161174490612ebf565b60405180910390fd5b80600660008481526020019081526020016000209080519060200190611774929190611d82565b505050565b505050565b505050565b60006117a48473ffffffffffffffffffffffffffffffffffffffff16611a24565b156118fe578373ffffffffffffffffffffffffffffffffffffffff1663150b7a026117cd610edc565b8786866040518563ffffffff1660e01b81526004016117ef9493929190612f34565b6020604051808303816000875af192505050801561182b57506040513d601f19601f820116820180604052508101906118289190612f95565b60015b6118ae573d806000811461185b576040519150601f19603f3d011682016040523d82523d6000602084013e611860565b606091505b506000815114156118a6576040517f08c379a000000000000000000000000000000000000000000000000000000000815260040161189d90612d3b565b60405180910390fd5b805181602001fd5b63150b7a0260e01b7bffffffffffffffffffffffffffffffffffffffffffffffffffffffff1916817bffffffffffffffffffffffffffffffffffffffffffffffffffffffff191614915050611903565b600190505b949350505050565b606060405180602001604052806000815250905090565b606061192d82610e70565b61196c576040517f08c379a000000000000000000000000000000000000000000000000000000000815260040161196390613034565b60405180910390fd5b600061197661190b565b9050600081511161199657604051806020016040528060008152506119c1565b806119a084611a47565b6040516020016119b1929190612e29565b6040516020818303038152906040525b915050919050565b6119d38383611ba8565b6119e06000848484611783565b611a1f576040517f08c379a0000000000000000000000000000000000000000000000000000000008152600401611a1690612d3b565b60405180910390fd5b505050565b6000808273ffffffffffffffffffffffffffffffffffffffff163b119050919050565b60606000821415611a8f576040518060400160405280600181526020017f30000000000000000000000000000000000000000000000000000000000000008152509050611ba3565b600082905060005b60008214611ac1578080611aaa90613054565b915050600a82611aba91906130cc565b9150611a97565b60008167ffffffffffffffff811115611add57611adc6121fa565b5b6040519080825280601f01601f191660200182016040528015611b0f5781602001600182028036833780820191505090505b5090505b60008514611b9c57600182611b289190612bd3565b9150600a85611b3791906130fd565b6030611b439190612c07565b60f81b818381518110611b5957611b5861312e565b5b60200101907effffffffffffffffffffffffffffffffffffffffffffffffffffffffffffff1916908160001a905350600a85611b9591906130cc565b9450611b13565b8093505050505b919050565b600073ffffffffffffffffffffffffffffffffffffffff168273ffffffffffffffffffffffffffffffffffffffff161415611c18576040517f08c379a0000000000000000000000000000000000000000000000000000000008152600401611c0f906131a9565b60405180910390fd5b611c2181610e70565b15611c61576040517f08c379a0000000000000000000000000000000000000000000000000000000008152600401611c5890613215565b60405180910390fd5b611c6d60008383611779565b6001600360008473ffffffffffffffffffffffffffffffffffffffff1673ffffffffffffffffffffffffffffffffffffffff1681526020019081526020016000206000828254611cbd9190612c07565b92505081905550816002600083815260200190815260200160002060006101000a81548173ffffffffffffffffffffffffffffffffffffffff021916908373ffffffffffffffffffffffffffffffffffffffff160217905550808273ffffffffffffffffffffffffffffffffffffffff16600073ffffffffffffffffffffffffffffffffffffffff167fddf252ad1be2c89b69c2b068fc378daa952ba7f163c4a11628f55a4df523b3ef60405160405180910390a4611d7e6000838361177e565b5050565b828054611d8e90612514565b90600052602060002090601f016020900481019282611db05760008555611df7565b82601f10611dc957805160ff1916838001178555611df7565b82800160010185558215611df7579182015b82811115611df6578251825591602001919060010190611ddb565b5b509050611e049190611e08565b5090565b5b80821115611e21576000816000905550600101611e09565b5090565b6000604051905090565b600080fd5b600080fd5b60007fffffffff0000000000000000000000000000000000000000000000000000000082169050919050565b611e6e81611e39565b8114611e7957600080fd5b50565b600081359050611e8b81611e65565b92915050565b600060208284031215611ea757611ea6611e2f565b5b6000611eb584828501611e7c565b91505092915050565b60008115159050919050565b611ed381611ebe565b82525050565b6000602082019050611eee6000830184611eca565b92915050565b600081519050919050565b600082825260208201905092915050565b60005b83811015611f2e578082015181840152602081019050611f13565b83811115611f3d576000848401525b50505050565b6000601f19601f8301169050919050565b6000611f5f82611ef4565b611f698185611eff565b9350611f79818560208601611f10565b611f8281611f43565b840191505092915050565b60006020820190508181036000830152611fa78184611f54565b905092915050565b6000819050919050565b611fc281611faf565b8114611fcd57600080fd5b50565b600081359050611fdf81611fb9565b92915050565b600060208284031215611ffb57611ffa611e2f565b5b600061200984828501611fd0565b91505092915050565b600073ffffffffffffffffffffffffffffffffffffffff82169050919050565b600061203d82612012565b9050919050565b61204d81612032565b82525050565b60006020820190506120686000830184612044565b92915050565b61207781612032565b811461208257600080fd5b50565b6000813590506120948161206e565b92915050565b600080604083850312156120b1576120b0611e2f565b5b60006120bf85828601612085565b92505060206120d085828601611fd0565b9150509250929050565b6000806000606084860312156120f3576120f2611e2f565b5b600061210186828701612085565b935050602061211286828701612085565b925050604061212386828701611fd0565b9150509250925092565b60006020828403121561214357612142611e2f565b5b600061215184828501612085565b91505092915050565b61216381611faf565b82525050565b600060208201905061217e600083018461215a565b92915050565b61218d81611ebe565b811461219857600080fd5b50565b6000813590506121aa81612184565b92915050565b600080604083850312156121c7576121c6611e2f565b5b60006121d585828601612085565b92505060206121e68582860161219b565b9150509250929050565b600080fd5b600080fd5b7f4e487b7100000000000000000000000000000000000000000000000000000000600052604160045260246000fd5b61223282611f43565b810181811067ffffffffffffffff82111715612251576122506121fa565b5b80604052505050565b6000612264611e25565b90506122708282612229565b919050565b600067ffffffffffffffff8211156122905761228f6121fa565b5b61229982611f43565b9050602081019050919050565b82818337600083830152505050565b60006122c86122c384612275565b61225a565b9050828152602081018484840111156122e4576122e36121f5565b5b6122ef8482856122a6565b509392505050565b600082601f83011261230c5761230b6121f0565b5b813561231c8482602086016122b5565b91505092915050565b6000806000806080858703121561233f5761233e611e2f565b5b600061234d87828801612085565b945050602061235e87828801612085565b935050604061236f87828801611fd0565b925050606085013567ffffffffffffffff8111156123905761238f611e34565b5b61239c878288016122f7565b91505092959194509250565b600067ffffffffffffffff8211156123c3576123c26121fa565b5b6123cc82611f43565b9050602081019050919050565b60006123ec6123e7846123a8565b61225a565b905082815260208101848484011115612408576124076121f5565b5b6124138482856122a6565b509392505050565b600082601f8301126124305761242f6121f0565b5b81356124408482602086016123d9565b91505092915050565b600080604083850312156124605761245f611e2f565b5b600061246e85828601612085565b925050602083013567ffffffffffffffff81111561248f5761248e611e34565b5b61249b8582860161241b565b9150509250929050565b600080604083850312156124bc576124bb611e2f565b5b60006124ca85828601612085565b92505060206124db85828601612085565b9150509250929050565b7f4e487b7100000000000000000000000000000000000000000000000000000000600052602260045260246000fd5b6000600282049050600182168061252c57607f821691505b602082108114156125405761253f6124e5565b5b50919050565b7f4552433732313a20617070726f76656420717565727920666f72206e6f6e657860008201527f697374656e7420746f6b656e0000000000000000000000000000000000000000602082015250565b60006125a2602c83611eff565b91506125ad82612546565b604082019050919050565b600060208201905081810360008301526125d181612595565b9050919050565b7f4552433732313a20617070726f76616c20746f2063757272656e74206f776e6560008201527f7200000000000000000000000000000000000000000000000000000000000000602082015250565b6000612634602183611eff565b915061263f826125d8565b604082019050919050565b6000602082019050818103600083015261266381612627565b9050919050565b7f4552433732313a20617070726f76652063616c6c6572206973206e6f74206f7760008201527f6e6572206e6f7220617070726f76656420666f7220616c6c0000000000000000602082015250565b60006126c6603883611eff565b91506126d18261266a565b604082019050919050565b600060208201905081810360008301526126f5816126b9565b9050919050565b7f4552433732313a207472616e736665722063616c6c6572206973206e6f74206f60008201527f776e6572206e6f7220617070726f766564000000000000000000000000000000602082015250565b6000612758603183611eff565b9150612763826126fc565b604082019050919050565b600060208201905081810360008301526127878161274b565b9050919050565b7f4552433732313a206f776e657220717565727920666f72206e6f6e657869737460008201527f656e7420746f6b656e0000000000000000000000000000000000000000000000602082015250565b60006127ea602983611eff565b91506127f58261278e565b604082019050919050565b60006020820190508181036000830152612819816127dd565b9050919050565b7f4552433732313a2062616c616e636520717565727920666f7220746865207a6560008201527f726f206164647265737300000000000000000000000000000000000000000000602082015250565b600061287c602a83611eff565b915061288782612820565b604082019050919050565b600060208201905081810360008301526128ab8161286f565b9050919050565b7f4f776e61626c653a2063616c6c6572206973206e6f7420746865206f776e6572600082015250565b60006128e8602083611eff565b91506128f3826128b2565b602082019050919050565b60006020820190508181036000830152612917816128db565b9050919050565b60006060820190506129336000830186612044565b81810360208301526129458185611f54565b9050612954604083018461215a565b949350505050565b7f4f776e61626c653a206e6577206f776e657220697320746865207a65726f206160008201527f6464726573730000000000000000000000000000000000000000000000000000602082015250565b60006129b8602683611eff565b91506129c38261295c565b604082019050919050565b600060208201905081810360008301526129e7816129ab565b9050919050565b7f4552433732313a206f70657261746f7220717565727920666f72206e6f6e657860008201527f697374656e7420746f6b656e0000000000000000000000000000000000000000602082015250565b6000612a4a602c83611eff565b9150612a55826129ee565b604082019050919050565b60006020820190508181036000830152612a7981612a3d565b9050919050565b7f4552433732313a207472616e736665722066726f6d20696e636f72726563742060008201527f6f776e6572000000000000000000000000000000000000000000000000000000602082015250565b6000612adc602583611eff565b9150612ae782612a80565b604082019050919050565b60006020820190508181036000830152612b0b81612acf565b9050919050565b7f4552433732313a207472616e7366657220746f20746865207a65726f2061646460008201527f7265737300000000000000000000000000000000000000000000000000000000602082015250565b6000612b6e602483611eff565b9150612b7982612b12565b604082019050919050565b60006020820190508181036000830152612b9d81612b61565b9050919050565b7f4e487b7100000000000000000000000000000000000000000000000000000000600052601160045260246000fd5b6000612bde82611faf565b9150612be983611faf565b925082821015612bfc57612bfb612ba4565b5b828203905092915050565b6000612c1282611faf565b9150612c1d83611faf565b9250827fffffffffffffffffffffffffffffffffffffffffffffffffffffffffffffffff03821115612c5257612c51612ba4565b5b828201905092915050565b7f4552433732313a20617070726f766520746f2063616c6c657200000000000000600082015250565b6000612c93601983611eff565b9150612c9e82612c5d565b602082019050919050565b60006020820190508181036000830152612cc281612c86565b9050919050565b7f4552433732313a207472616e7366657220746f206e6f6e20455243373231526560008201527f63656976657220696d706c656d656e7465720000000000000000000000000000602082015250565b6000612d25603283611eff565b9150612d3082612cc9565b604082019050919050565b60006020820190508181036000830152612d5481612d18565b9050919050565b7f45524337323155524953746f726167653a2055524920717565727920666f722060008201527f6e6f6e6578697374656e7420746f6b656e000000000000000000000000000000602082015250565b6000612db7603183611eff565b9150612dc282612d5b565b604082019050919050565b60006020820190508181036000830152612de681612daa565b9050919050565b600081905092915050565b6000612e0382611ef4565b612e0d8185612ded565b9350612e1d818560208601611f10565b80840191505092915050565b6000612e358285612df8565b9150612e418284612df8565b91508190509392505050565b7f45524337323155524953746f726167653a2055524920736574206f66206e6f6e60008201527f6578697374656e7420746f6b656e000000000000000000000000000000000000602082015250565b6000612ea9602e83611eff565b9150612eb482612e4d565b604082019050919050565b60006020820190508181036000830152612ed881612e9c565b9050919050565b600081519050919050565b600082825260208201905092915050565b6000612f0682612edf565b612f108185612eea565b9350612f20818560208601611f10565b612f2981611f43565b840191505092915050565b6000608082019050612f496000830187612044565b612f566020830186612044565b612f63604083018561215a565b8181036060830152612f758184612efb565b905095945050505050565b600081519050612f8f81611e65565b92915050565b600060208284031215612fab57612faa611e2f565b5b6000612fb984828501612f80565b91505092915050565b7f4552433732314d657461646174613a2055524920717565727920666f72206e6f60008201527f6e6578697374656e7420746f6b656e0000000000000000000000000000000000602082015250565b600061301e602f83611eff565b915061302982612fc2565b604082019050919050565b6000602082019050818103600083015261304d81613011565b9050919050565b600061305f82611faf565b91507fffffffffffffffffffffffffffffffffffffffffffffffffffffffffffffffff82141561309257613091612ba4565b5b600182019050919050565b7f4e487b7100000000000000000000000000000000000000000000000000000000600052601260045260246000fd5b60006130d782611faf565b91506130e283611faf565b9250826130f2576130f161309d565b5b828204905092915050565b600061310882611faf565b915061311383611faf565b9250826131235761312261309d565b5b828206905092915050565b7f4e487b7100000000000000000000000000000000000000000000000000000000600052603260045260246000fd5b7f4552433732313a206d696e7420746f20746865207a65726f2061646472657373600082015250565b6000613193602083611eff565b915061319e8261315d565b602082019050919050565b600060208201905081810360008301526131c281613186565b9050919050565b7f4552433732313a20746f6b656e20616c7265616479206d696e74656400000000600082015250565b60006131ff601c83611eff565b915061320a826131c9565b602082019050919050565b6000602082019050818103600083015261322e816131f2565b905091905056fea264697066735822122011354db4b4b53dc77a06878e061c0daf14605db01cd49259addb420d27c7211264736f6c634300080b0033",
  "linkReferences": {},
  "deployedLinkReferences": {}
}